:020000040800F2
:1000000000500020F11600083517000835170008C9
:1000100035170008351700083517000800000000E4
:10002000000000000000000000000000351700087C
:10003000351700080000000035170008C11400083B
:100040003517000835170008351700083517000860
:100050003517000835170008351700083517000850
:100060003517000835170008351700083517000840
:100070003517000835170008351700083517000830
:100080003517000835170008351700081D0C000843
:10009000290C0008350C0008410C00083517000831
:1000A0003517000835170008351700083517000800
:1000B00035170008351700083517000835170008F0
:1000C00035170008351700083517000835170008E0
:1000D0003517000839170008E11700083517000820
:1000E0003517000835170008351700080000000014
:1000F0000000000000000000000000000000000000
:0C01000000000000000000005FF808F1A3
:10010C0010B5054C237833B9044B13B10448AFF345
:10011C0000800123237010BD9C0000200000000013
:10012C00F033000808B5034B1BB103490348AFF388
:10013C00008008BD00000000A0000020F033000883
:10014C00034613F8012B002AFBD1181A013870470B
:10015C0080B483B000AF0346FB80FB885B019BB28D
:10016C0018460C37BD4680BC704780B58AB000AFCE
:10017C0001237B620023BB6100237B614FF4807001
:10018C00FFF7E6FF03467B600023BB600023FB60A8
:10019C0000233B610123FB6101233B623B1D18469D
:1001AC0000F0F0F900BF2837BD4680BD80B500AF28
:1001BC003149324801F052FA1921012001F0C4F8FA
:1001CC000021022001F0C0F804220B21002000F0D5
:1001DC00D1FF09220C21002000F0CCFF284B1B681A
:1001EC00274A23F00203136000BF254B5B6803F022
:1001FC000203002BF9D1224B1B68214A43F0010367
:10020C00136000BF1E4B5B6803F00103012BF9D197
:10021C001B4B1B681A4A23F004031360184B1B6812
:10022C00174A23F008031360154B1B68144A23F07C
:10023C0010031360124B1B68114A43F02003136028
:10024C000F4B1B680E4A43F0400313600C4B1B68AA
:10025C000B4A23F0800313600223013B1B051A4653
:10026C000523013B1B0413430A22013A1146044A9D
:10027C000B43D36100BF80BDB800002000000020FC
:10028C000064004080B485B000AF786039604E4B9C
:10029C009B68FB60FB6803F08063002B0AD1FB6852
:1002AC0003F00063002B05D1FB6803F08053002B97
:1002BC0000F08480FB681B0E03F00303BB60BB687B
:1002CC00022B7BD87B689B68002B0CD17B681B684E
:1002DC005A057B68DB683C491A43BB6818331B0121
:1002EC000B441A600EE07B685B68DA007B689B68E5
:1002FC001A437B68DB6834491A43BB6818331B010B
:10030C000B441A6030497B681A69BB6818331B01AF
:10031C000B4404331A607B681B7D012B0FD12A4AD6
:10032C00BB6818331B01134404331B68264943F480
:10033C008072BB6818331B010B4404331A603B6892
:10034C0007331B781A063B6806331B781B041A43C9
:10035C003B6805331B781B0213433A68043212784E
:10036C0019491A43BB681B010B4403F5C6731A6089
:10037C003B6803331B781A063B6802331B781B045B
:10038C001A433B6801331B781B0213433A681278FB
:10039C000D491A43BB681B010B4403F5C4731A6067
:1003AC00094ABB6818331B0113441B68064943F008
:1003BC000102BB6818331B010B441A6000BF1437D1
:1003CC00BD4680BC704700BF0064004080B400AFE5
:1003DC00084B1B68074A23F00103136000BF054B51
:1003EC005B6803F00103002BF9D100BF00BFBD46D1
:1003FC0080BC70470064004080B487B000AFF860E8
:10040C00B9607A60504AFB681B331B0113441B68AC
:10041C009B0803F00102BB689A60BB689B68002BC9
:10042C0009D1494AFB681B331B0113441B685A0D45
:10043C00BB681A6008E0444AFB681B331B01134479
:10044C001B68DA08BB685A603F4AFB681B331B0108
:10045C0013441B685B0803F00102BB68DA603A4A7C
:10046C00FB681B331B01134404331B6803F00F029E
:10047C00BB681A61344AFB681B331B0113440433F9
:10048C001B681B0ADAB2BB689A612F4AFB681B33E4
:10049C001B01134404331B681B0C9AB2BB685A61D2
:1004AC000023FB7507E0FB7D7A68134400221A7069
:1004BC00FB7D0133FB75FB7D072BF4D90023BB754A
:1004CC0027E0BB7D032B10D81F4AFB681B0113448C
:1004DC0003F5DC731A68BB7DDB0022FA03F1BB7DEC
:1004EC007A681344CAB21A7010E0174AFB681B01F1
:1004FC00134403F5DE731A68BB7D043BDB0022FA60
:10050C0003F1BB7D7A681344CAB21A70BB7D013308
:10051C00BB75BA7DBB681B699A42D2D3FB68002BB2
:10052C0006D1094BDB68084A43F02003D36005E091
:10053C00054B1B69044A43F02003136100BF1C37B1
:10054C00BD4680BC704700BF0064004080B483B0DF
:10055C0000AF0346FB71FB79002B06D1084BDB681F
:10056C00DBB203F00303DBB205E0054B1B69DBB226
:10057C0003F00303DBB218460C37BD4680BC704752
:10058C000064004080B485B000AF7860644BD3F851
:10059C000032634A43F00103C2F800327B685B69A6
:1005AC00FB605F4BD3F81C327A685269012101FA67
:1005BC0002F2D24311465A4A0B40C2F81C327B68F5
:1005CC00DB69002B28D1564BD3F80C320121FA6889
:1005DC0001FA02F2D2431146514A0B40C2F80C32D6
:1005EC007B68DB6819047B685B689AB24C487B6853
:1005FC005B690A43483340F833207B689B681904D5
:10060C007B681B689AB246487B685B690A4348332F
:10061C00DB0003445A602AE07B68DB69012B26D19E
:10062C003F4BD3F80C320121FA6801FA02F2114661
:10063C003B4A0B43C2F80C327B681B6819047B687D
:10064C005B689AB236487B685B690A43483340F86A
:10065C0033207B689B6819047B68DB689AB230484E
:10066C007B685B690A434833DB0003445A607B6850
:10067C009B69002B0DD12A4BD3F804320121FA6867
:10068C0001FA02F2D2431146254A0B40C2F8043259
:10069C000BE0234BD3F804320121FA6801FA02F281
:1006AC0011461F4A0B43C2F804327B681B69002BAE
:1006BC000DD11B4BD3F814320121FA6801FA02F266
:1006CC00D2431146164A0B40C2F814320BE0144BBD
:1006DC00D3F814320121FA6801FA02F21146104AD9
:1006EC000B43C2F814327B681B6A012B0BD10C4BE9
:1006FC00D3F81C320121FA6801FA02F21146084AB9
:10070C000B43C2F81C32064BD3F80032044A23F0D8
:10071C000103C2F8003200BF1437BD4680BC7047DD
:10072C000064004080B483B000AF064B9B691B098A
:10073C00DBB203F00703FB71FB7918460C37BD469F
:10074C0080BC70470064004080B483B000AF786018
:10075C00054B5A6904497B6813434B6100BF0C3746
:10076C00BD4680BC704700BF0064004080B582B0BD
:10077C0000AF504B00221A604F4B9B683B6000232C
:10078C00FB7188E0FB793A6822FA03F303F001036A
:10079C00002B7DD0484B9B68FA79012101FA02F2BB
:1007AC001146454A0B439360FB7901333A6822FAB0
:1007BC0003F303F00103002B08D0FB79DB08DBB259
:1007CC001A463E4B53F82230984761E0FB790233CE
:1007DC003A6822FA03F303F00103002B20D0FB79D3
:1007EC00DB08DBB2022B14D0022B51DC002B02D025
:1007FC00012B07D04CE02F4B1B6843F400632D4AB0
:10080C00136045E02B4B1B6843F40053294A1360DB
:10081C003EE0284B1B6843F40043264A136037E044
:10082C00FB7903333A6822FA03F303F00103002B3C
:10083C0026D0204B1B6843F480531E4A1360FB796F
:10084C00DB08DBB2022B14D0022B21DC002B02D0F4
:10085C00012B07D01CE0174B1B6843F48053154A3F
:10086C00136015E0134B1B6843F48043114A13606B
:10087C000EE0104B1B6843F480330E4A136007E004
:10088C00FB79DB08DBB21A460D4B53F82230984744
:10089C00FB790833FB71FB79102B7FF673AF054B9B
:1008AC001B68002B01D000F043FA00BF0837BD468F
:1008BC0080BD00BFC8010020006400400C00002077
:1008CC001800002080B584B000AF0023FB60214BE2
:1008DC005B69BB601F4BDB687B60BB6803F0080384
:1008EC00002B0ED07B6803F01003002B09D0FB68A3
:1008FC0043F40073FB60174BDB68164A43F010039C
:10090C00D360BB6803F00403002B0CD07B6803F0AE
:10091C000803002B07D00F4BDB680E4A43F008038B
:10092C00D36000F057F9BB6803F00203002B07D02B
:10093C00084BDB6803F00303002B01D000F0ECF94B
:10094C00FB68002B01D000F0F3F900BF1037BD4657
:10095C0080BD00BF0064004080B584B000AF0023B0
:10096C00FB60214B5B69BB601F4B1B697B60BB68E9
:10097C0003F04003002B0ED07B6803F01003002B18
:10098C0009D0FB6843F48063FB60174B1B69164A64
:10099C0043F010031361BB6803F02003002B0CD051
:1009AC007B6803F00803002B07D00F4B1B690E4A22
:1009BC0043F00803136100F019F9BB6803F010034E
:1009CC00002B07D0084B1B6903F00303002B01D04D
:1009DC0000F006F9FB68002B01D000F0A9F900BF6C
:1009EC001037BD4680BD00BF0064004080B584B0A8
:1009FC0000AF674B00221A60664B5B69FB60654B6E
:100A0C005B68BB60634B9B697B60FB6803F40033E2
:100A1C00002B0CD0BB6803F01003002B07D05D4BF0
:100A2C005B685C4A43F01003536000F0E5F8FB6828
:100A3C0003F48033002B0CD0BB6803F00803002BAD
:100A4C0007D0544B5B68534A43F00803536000F0E3
:100A5C00D9F8FB6803F40043002B00F08E80BB68D0
:100A6C0003F00403002B00F08280FB6803F4807316
:100A7C00002B0AD07B6803F00103002B05D0444BFC
:100A8C001B6843F00103424A1360FB6803F40073D4
:100A9C00002B0AD07B6803F00203002B05D03C4BE3
:100AAC001B6843F002033A4A1360FB6803F480634B
:100ABC00002B0AD07B6803F00403002B05D0344BC9
:100ACC001B6843F00403324A1360FB6803F40063B1
:100ADC00002B4CD07B681B0903F00703002B46D07E
:100AEC007B681B0903F00703013B052B38D801A2D7
:100AFC0052F823F0190B0008270B0008350B0008DF
:100B0C00430B0008510B00085F0B0008204B1B68BF
:100B1C0043F008031E4A136023E01D4B1B6843F08F
:100B2C0010031B4A13601CE0194B1B6843F0200395
:100B3C00174A136015E0164B1B6843F04003144A28
:100B4C0013600EE0124B1B6843F08003104A1360D5
:100B5C0007E00F4B1B6843F480730D4A136000E0F1
:100B6C0000BF0C4B9B690B4A23F070039361094B3C
:100B7C005B68084A43F004035360054B1B68002B69
:100B8C0001D000F0D5F800BF1037BD4680BD00BFC6
:100B9C00C80100200064004080B400AF00BFBD4617
:100BAC0080BC704780B400AF00BFBD4680BC7047AE
:100BBC0080B400AF00BFBD4680BC704780B400AFAE
:100BCC0000BFBD4680BC704780B400AF00BFBD46BF
:100BDC0080BC704780B400AF00BFBD4680BC70477E
:100BEC0080B400AF00BFBD4680BC704780B400AF7E
:100BFC0000BFBD4680BC704780B400AF00BFBD468F
:100C0C0080BC704780B400AF00BFBD4680BC70474D
:100C1C0080B500AFFFF7AAFD00BF80BD80B500AF67
:100C2C00FFF750FE00BF80BD80B500AFFFF794FE0C
:100C3C0000BF80BD80B500AFFFF7D8FE00BF80BD00
:100C4C0080B588B000AF78600B46FB7013463B80D4
:100C5C003B88BB6000233B6100237B61FB78BB615D
:100C6C0000233B7707F1080379681846FFF70AFB66
:100C7C0000BF2037BD4680BD80B588B000AF00BF37
:100C8C000020FFF763FC0346002BF9D03B1D064AFE
:100C9C0019460020FFF7B0FB7B69DAB2034B1A70E0
:100CAC0000BF2037BD4680BDB8010020C001002028
:100CBC0080B500AF132000F089FB142000F086FBF8
:100CCC00162000F083FB48F60340FFF73DFD00BF04
:100CDC0080BD80B400AF00BFBD4680BC7047000033
:100CEC0080B483B000AF78607B68034A1A6000BFA1
:100CFC000C37BD4680BC7047B801002080B483B06F
:100D0C0000AF7860034A7B68136000BF0C37BD46A8
:100D1C0080BC7047C401002080B500AFFFF7ACFF6A
:100D2C00024B1B68984700BF80BD00BFC401002068
:100D3C0080B582B000AFFFF7F5FC786000BF0837D4
:100D4C00BD4680BD80B483B000AF7860034A7B6839
:100D5C00136000BF0C37BD4680BC7047E801002013
:100D6C0080B483B000AF786039607B681B68054A3B
:100D7C001360054A3B68136000BF0C37BD4680BC4E
:100D8C00704700BFF0010020E001002080B500AFEB
:100D9C00FFF70CFAFFF7E9F90448FFF7AFFFFFF78D
:100DAC0087FFFFF713FB00BF80BD00BF290F0008B2
:100DBC0080B584B000AF78600B46FB70544B0022BA
:100DCC001A8000237B81FB78FB7397F90F30072B7C
:100DDC0020DCFA7B4F4B1A700023BB730BE0BB7B00
:100DEC007A681A44BB7B01331278D1B2494AD15488
:100DFC00BB7B0133BB73BA7B97F90F309A42EEDBA6
:100E0C00FB7B0133DBB24FF4007219464148FFF70C
:100E1C0017FF79E097F90F30072B75DD3E4B002259
:100E2C001A704FF480537B8197F90F301AB2B7F9CF
:100E3C000A3013431BB27B817B891B0A9BB2DAB24B
:100E4C00344B1A707B89DAB2324B5A7000237B73A5
:100E5C000BE07B7B7A681A447B7B02331278D1B22D
:100E6C002C4AD1547B7B01337B737B7B052BF0D9D4
:100E7C004FF4007208212748FFF7E2FEFB7B063B8C
:100E8C00DBB2FB73244B06221A7039E0214B212272
:100E9C001A7000233B7313E01F4B1B781A467B68B8
:100EAC001A443B7B01331278D1B21A4AD1541A4BF3
:100EBC001B780133DAB2184B1A703B7B01333B734E
:100ECC003A7B97F90F309A4202DA3B7B062BE3D937
:100EDC0097F90F30072B06DD4FF4007208210D48EF
:100EEC00FFF7AEFE08E0FB7B0133DBB24FF4007280
:100EFC0019460848FFF7A4FEFB7B073BDBB2FB73EC
:100F0C0097F90F30002BC1DC00BF1037BD4680BDF8
:100F1C00CC010020D8010020D001002080B582B087
:100F2C0000AF0023BB708848FFF7DAFE874B1B68C5
:100F3C0098470346BB70BB78012B40F00081824B75
:100F4C001B681B78DBB21B09DAB2814B1A70814B20
:100F5C001B889BB2002B40F0F2807D4B1B78032B3F
:100F6C0000F2D08001A252F823F000BF890F0008D4
:100F7C00F70F0008A710000811110008724B1B682E
:100F8C001B78DBB29BB203F00F039AB2724B1A8040
:100F9C00714B1B889AB2714B1B68D2B21A706E4B94
:100FAC001B889BB2082B00F2AF800023FB7114E06E
:100FBC00654B1A68FB7901331A44694B1968FB7944
:100FCC000B441278D2B21A70664B1B780133DAB22A
:100FDC00644B1A70FB790133FB71FB799AB25E4B4F
:100FEC001B889BB29A42E3D38EE05B4B00221A80A3
:100FFC00554B1B681B78DBB21B029BB203F470636E
:10100C009AB2554B1A80504B1B6801331B78DBB2DC
:10101C009AB2514B1B889BB213439AB24E4B1A8017
:10102C004D4B1B889AB24D4B1B68D2B21A704A4B6F
:10103C001B889BB21AB24C4B1A800223BB714B4BD0
:10104C001B787B7125E0404B1A68BB791A44444BE2
:10105C0019687B790B441278D2B21A70414B1B7809
:10106C000133DAB23F4B1A70404B1B780133DAB2C2
:10107C003E4B1A703C4B1B881BB29BB2013B9BB284
:10108C001AB2394B1A807B7901337B71BB790133EE
:10109C00BB71BB79072BD6D939E001233B71334B9C
:1010AC001B78FB7025E0284B1A683B791A442C4BB3
:1010BC001968FB780B441278D2B21A70294B1B7842
:1010CC000133DAB2274B1A70284B1B780133DAB292
:1010DC00264B1A70244B1B881BB29BB2013B9BB254
:1010EC001AB2214B1A80FB780133FB703B79013328
:1010FC003B713B79072B09D81B4B1B881BB2002B70
:10110C00D1DC03E000BF02E000BF00E000BF154BE4
:10111C001B789AB2104B1B889BB29A420FD1144B7E
:10112C001B6801221A700F4B00221A700F4B002201
:10113C001A70074B0A221A70064B01221A8000BF44
:10114C000837BD4680BD00BFEC010020E80100203F
:10115C0024000020CC010020D2010020E00100205E
:10116C00F0010020CE010020D4010020CF0100208E
:10117C00E401002080B483B000AF0346FB710B4642
:10118C00BB7113467B71FB79022B7DD0022B00F3D4
:10119C00B980002B02D0012B3AD0B3E0BB79072BDE
:1011AC0017D85B4B1B68BA7992000F2101FA02F237
:1011BC00D2431146564A0B401360554B1B68797944
:1011CC00BA79920001FA02F21146514A0B431360AC
:1011DC0093E0BB790F2B00F29080BB79083BBB717D
:1011EC004C4B1B68BA7992000F2101FA02F2D243E0
:1011FC001146484A0B401360464B1B687979BA7903
:10120C00920001FA02F21146424A0B43136074E059
:10121C00BB79072B17D8404B1B68BA7992000F216A
:10122C0001FA02F2D24311463B4A0B4013603A4B8F
:10123C001B687979BA79920001FA02F21146364AA2
:10124C000B4313605BE0BB79062B58D9BB790F2B92
:10125C0055D8BB79083BBB71304B1B68BA799200EF
:10126C000F2101FA02F2D24311462C4A0B401360B3
:10127C002A4B1B687979BA79920001FA02F211466D
:10128C00264A0B4313603AE0BB79072B17D8244B43
:10129C001B68BA7992000F2101FA02F2D24311466F
:1012AC001F4A0B4013601E4B1B687979BA79920068
:1012BC0001FA02F211461A4A0B43136021E0BB7982
:1012CC000F2B1ED8BB79083BBB71164B1B68BA7928
:1012DC0092000F2101FA02F2D2431146114A0B403F
:1012EC001360104B1B687979BA79920001FA02F2FB
:1012FC0011460C4A0B43136003E000BF02E000BF31
:10130C0000E000BF00BF0C37BD4680BC704700BF7B
:10131C000008014004080140000C0140040C01408D
:10132C00001001400410014080B400AF044B812236
:10133C001A60044B00221A6000BFBD4680BC704787
:10134C00001002400410024080B483B000AF03468A
:10135C000A46FB711346BB71BB791F2B2AD8FB794C
:10136C00022B1CD0022B25DC002B02D0012B0BD026
:10137C0020E0134B1B68BA79012101FA02F21146E5
:10138C000F4A0B43136015E00E4B1B68BA79012111
:10139C0001FA02F211460B4A0B4313600AE00A4BA6
:1013AC001B68BA79012101FA02F21146064A0B4375
:1013BC00136000BF00BF0C37BD4680BC704700BF38
:1013CC00141002401C1002401810024080B483B06C
:1013DC0000AF0346FB71FB791F2B05D8FB7901226B
:1013EC009A40094B1A600AE0FB793B2B07D8FB7932
:1013FC00203BFB71FB7901229A40044B1A6000BF21
:10140C000C37BD4680BC704700E100E004E100E011
:10141C0080B400AF0A4B1B68094A23F00403136025
:10142C00074B1B68064A23F001031360044B1B682F
:10143C00034A23F00203136000BFBD4680BC704713
:10144C0010E000E080B483B000AF7860114B1B68F3
:10145C00104A23F0010313600E4B1B680D4A23F056
:10146C00020313600B4B00229A600A4A7B6853609C
:10147C00084B1B68074A43F002031360054B1B68BB
:10148C00044A43F00103136000BF0C37BD4680BC17
:10149C00704700BF10E000E080B483B000AF78600C
:1014AC00034A7B68136000BF0C37BD4680BC704795
:1014BC00F401002080B500AF024B1B68984700BFB9
:1014CC0080BD00BFF401002080B485B000AF78600F
:1014DC0039607B681B78FB603B681A787B681A70F4
:1014EC00FB68DAB23B681A7000BF1437BD4680BC8B
:1014FC00704780B588B000AFF860B9607A60F86862
:10150C00FEF71EFE0346FB750023BB750023FB6133
:10151C0008E0FB69BA681344FA69D2B21A70FB6925
:10152C000133FB61FB69FF2BF3DD0023BB6123E07F
:10153C00FB7DBA699A4208DABB69FA681A44BB693E
:10154C0079680B4412781A7013E0FB7DBA699A42E1
:10155C000FDBFA7DBB6993FBF2F101FB02F29B1AE4
:10156C00BB75BB7DFA681A44BB6979680B44127869
:10157C001A70BB690133BB61BB69FF2BD8DD00BF9F
:10158C0000BF2037BD4680BD80B584B000AF786009
:10159C0039600023FB600023BB6019E0BB687A68EC
:1015AC0013441B781A46FB681344BA6839680A441A
:1015BC0012781344DBB2FB60BB687A68D0187A6887
:1015CC00FB6813441946FFF77FFFBB680133BB6010
:1015DC00BB68FF2BE2DD00BF00BF1037BD4680BDEE
:1015EC0080B586B000AF7860396000237B61002342
:1015FC003B610023FB6000237B6127E07A687B69F9
:10160C0013441B781A463B691344DBB23B617A687E
:10161C007B69D0187A683B6913441946FFF754FF6D
:10162C007A683B6913441A7879687B690B441B7898
:10163C001344DBB2FB607A68FB681A4439687B6937
:10164C000B4412781A707B6901337B617B69FF2B29
:10165C00D4D900BF00BF1837BD4680BD80B5ADF5ED
:10166C00027D00AF07F50273A3F50173186007F54F
:10167C000273A3F50273196007F1080207F5847170
:10168C0007F50273A3F501731868FFF732FF07F132
:10169C00080207F5847311461846FFF775FF07F526
:1016AC000273A3F5027307F5847219681046FFF7ED
:1016BC0097FF00BF07F50277BD4680BD80B500AF30
:1016CC00FFF732FE00F0A4F8054B1B78DBB2002BC1
:1016DC00FAD000F061F9024B00221A70F4E700BF57
:1016EC00F80100200B480C490C4A002302E0D458A6
:1016FC00C4500433C4188C42F9D3094A094C002352
:10170C0001E013600432A242FBD300F0BDFFFFF7EF
:10171C00D5FF7047000000209C00002040370008D7
:10172C009C00002000040020FEE7000080B483B081
:10173C0000AF224B5B68202B0ED0204B5968204BFE
:10174C001B781A46C9B21F4B99541D4B1B78013399
:10175C00DAB21B4B1A701FE00023FB710BE0FA7915
:10176C00194B1968FB790B4416498A5CD2B21A7072
:10177C00FB790133FB71124B1B78FA799A42EED349
:10178C00124B1B680E4A12781A700D4B00221A70FD
:10179C000F4B1B6801221A70084B1B68074A23F079
:1017AC0020031360054B1B68044A23F040031360AD
:1017BC0000BF0C37BD4680BC704700BF00380140ED
:1017CC004002002000020020FC0100203802002012
:1017DC003402002080B400AF0A4B5A680A4B1B68D5
:1017EC0092B21A80094B1B68084A23F0200313603D
:1017FC00064B1B68054A23F04003136000BFBD462F
:10180C0080BC7047004400403C020020003801407E
:10181C0080B500AFFFF7BAFAFFF7FAFD0548FFF7FE
:10182C003BFE4FF47A70FFF70DFE0348FFF78AFA80
:10183C0000BF80BDD5210008A921000880B584B067
:10184C0000AF78600023FB7316E0114B1B78114A34
:10185C00DB0013445B68786898470346FB73FB7B9B
:10186C00012B06D10A4B1B780133DAB2084B1A70E4
:10187C0002E000F023FA03E0054B1B78032BE4D1C4
:10188C0000F01CFAFB7B18461037BD4680BD00BF2C
:10189C00AC0200200834000880B584B000AF78603A
:1018AC000023FB7316E0114B1B78114ADB00134429
:1018BC005B68786898470346FB73FB7B012B06D16A
:1018CC000A4B1B780133DAB2084B1A7002E000F0B5
:1018DC0001FA03E0054B1B78032BE4D100F0FAF975
:1018EC00FB7B18461037BD4680BD00BFAD02002003
:1018FC002034000880B584B000AF78600023FB73FF
:10190C007B681B781F4ADB0013445B68002B22D0DA
:10191C007B681B783F2B1ED87B681B78194ADB0031
:10192C0013445A78184B1A707B681B78154ADB00E5
:10193C0013445A687B681B781249DB000B445B78B4
:10194C0019460B461B010B4479680B44184690470B
:10195C000346FB730FE00D4B7F221A707B681A78DD
:10196C000A4B5A70094B11229A70094B03221A70B8
:10197C00084B01221A700123FB73FB7B18461037AE
:10198C00BD4680BD38340008AE0200209002002015
:10199C00A40200208A02002080B582B000AF234B45
:1019AC0001221A70224B01221A700023BB710023F2
:1019BC007B7100233B711F48FFF740FF0346BB714F
:1019CC00BB79012B1BD11C48FFF794FF03467B719D
:1019DC007B79012B13D11748FFF75EFF03463B7150
:1019EC003B79012B0BD1154B1B78002B07D1144BDA
:1019FC001B78DBB25BB219460E48FFF7D9F900230E
:101A0C00FB7106E0FB790B4A0021D154FB790133C1
:101A1C00FB71FB79132BF5D9084B00221A70034B81
:101A2C0000221A7000BF0837BD4680BD8B02002013
:101A3C008902002090020020440200208A0200202B
:101A4C00A402002080B485B000AF78600023FB7343
:101A5C007B681A780B4B1A707B681A78094B5A748E
:101A6C007B681A78074B83F822207B681A78054B21
:101A7C0083F833200123FB73FB7B18461437BD46D8
:101A8C0080BC70474402002080B485B000AF786001
:101A9C000023FB730E4B1B78DBB2012B0FD90D4BC4
:101AAC00FF225A707B685A780A4B9A74094BFF22B2
:101ABC0083F823207B685A78064B83F83420012363
:101ACC00FB73FB7B18461437BD4680BC704700BFC8
:101ADC00A40200204402002080B485B000AF7860DE
:101AEC0000237B731E4B1B78DBB2022B2FD90023F8
:101AFC00FB730DE0FB7B01337A681A44FB7B117896
:101B0C00184A13440A4683F82420FB7B0133FB73E9
:101B1C00FA7B134B1B78DBB2013B9A42EADB0023C6
:101B2C00BB730DE0BB7B02337A681A44BB7B117824
:101B3C000C4A13440A4683F83520BB7B0133BB7334
:101B4C00BA7B074B1B78DBB2023B9A42EADB0123E0
:101B5C007B737B7B18461437BD4680BC704700BF37
:101B6C00A40200204402002080B485B000AF78604D
:101B7C000023FB73094B1B781946094A0B461B01C2
:101B8C000B4413441A787B681A700123FB73FB7B9C
:101B9C0018461437BD4680BC704700BFAE0200200B
:101BAC004402002080B485B000AF78600023FB7342
:101BBC00144B1B78012B0CD1124B1B7818467B68ED
:101BCC005A1C114903461B0103440B4401331B7877
:101BDC0013700C4B1B78032B0CD10A4B1B7818463B
:101BEC007B685A1C084903461B0103440B44013310
:101BFC001B7813700123FB73FB7B18461437BD460F
:101C0C0080BC7047AE0200204402002090B484B027
:101C1C0000AF786000237B73254B1B78022B1DD102
:101C2C000123FB7313E0224B1B781C46FB7B591ED4
:101C3C00FB7B7A681A441F4823461B012344034448
:101C4C000B4402331B781370FB7B0133FB731A4B71
:101C5C001B78DBB2FA7B9A42E5D320E0144B1B785D
:101C6C00032B1CD10223BB7313E0114B1B781C46B6
:101C7C00BB7B991EBB7B7A681A440E4823461B011A
:101C8C00234403440B4402331B781370BB7B013396
:101C9C00BB73094B1B78DBB2BA7B9A42E5D30123A9
:101CAC007B737B7B18461037BD4690BC704700BFDA
:101CBC00AE02002044020020A402002080B400AF39
:101CCC00034B00221A7000BFBD4680BC704700BF9A
:101CDC00AC02002080B400AF034B00221A7000BF8E
:101CEC00BD4680BC704700BFAD02002080B584B0FB
:101CFC0000AF78600023FB720023FB730023BB73DF
:101D0C007B689B781B021AB27B68DB781BB213438F
:101D1C001BB23B814B4B1B78DBB2032B67D10023EF
:101D2C007B735EE07B7B484A1B0113441B883A891A
:101D3C009A4253D17B7B444A1B0113440A331A78D1
:101D4C00424B1B789A4207D07B7B3F4A1B011344C2
:101D5C000A331B78042B41D17B7B3B4A1B01134478
:101D6C000C331A783A4B1B789A4207D07B7B364A55
:101D7C001B0113440C331B78052B2FD17B681B786C
:101D8C004033DAB27B681A7000233B7311E07B7B23
:101D9C002D4A1B01134404331A683B7B1A443B7BCA
:101DAC00023311787A6813440A469A703B7B0133EC
:101DBC003B737B7B244A1B01134408331B783A7B0F
:101DCC009A42E4D30123FB737B7B1F4A1B01134410
:101DDC0008331B780333DAB21A4B1A707B7B01334E
:101DEC007B731C4B1B787A7B9A429BD301E00123BB
:101DFC00BB73FB7B002B1ED1174B01221A70174BA8
:101E0C007F221A707B681A78144B5A70134B262257
:101E1C009A700C4B03221A70BB7B012B03D10F4B16
:101E2C0013229A7000BF074B1B78DBB25BB21946CA
:101E3C000A48FEF7BDFF0123FB72FB7A18461037E8
:101E4C00BD4680BDA4020020383600083C000020AE
:101E5C003D0000203E0000208A020020900200205D
:101E6C0080B582B000AF78607B685B78002B1CD0AB
:101E7C007B685B78032B18D87B685A78194B1A70DF
:101E8C007B681B784033DAB27B681A70154B1B7871
:101E9C00012B03D0144B01221A7002E0124B0022CA
:101EAC001A70124B02221A7017E0114B01221A7091
:101EBC00104B7F221A707B681A780E4B5A700D4BA0
:101ECC0012229A70094B03221A70084B1B78DBB252
:101EDC005BB219460748FEF76BFF0123184608371B
:101EEC00BD4680BD3C00002088020020A4020020DA
:101EFC008A0200209002002080B483B000AF78608A
:101F0C007B681B784033DAB27B681A70054B012270
:101F1C001A70054B00221A80012318460C37BD4657
:101F2C0080BC7047A4020020A602002080B584B0BB
:101F3C0000AF786000233B730023FB737B689B78B6
:101F4C009BB21B027B817B68DB787B8100237B72DD
:101F5C000023BB735DE0BB7B454A1B0113441B880C
:101F6C007A899A4252D1BB7B414A1B0113440B33F1
:101F7C001A78404B1B789A4207D0BB7B3C4A1B011A
:101F8C0013440B331B78042B40D1BB7B384A1B0109
:101F9C0013440D331A78384B1B789A4207D0BB7B0D
:101FAC00334A1B0113440D331B78052B2ED17B6850
:101FBC001B784033DAB27B681A7000237B7310E015
:101FCC007B7B9A1CBB7B2A491B010B44043319688D
:101FDC007B7B0B4479680A4492781A707B7B0133C3
:101FEC007B73BB7B224A1B01134408331B787A7B1F
:101FFC009A42E5D30123FB73BB7B1D4A1B0113449F
:10200C0008331B780333DAB21C4B1A70BB7B0133D9
:10201C00BB731B4B1B78BA7B9A429CD3FB7B002B6C
:10202C001ED1184B01221A70174B7F221A707B6835
:10203C001A78154B5A70144B26229A700F4B0322A8
:10204C001A707B7A012B03D10F4B13229A7000BFAD
:10205C000A4B1B78DBB25BB219460B48FEF7A8FEA5
:10206C0001233B733B7B18461037BD4680BD00BF38
:10207C00383600083C0000203D000020A40200205F
:10208C003E0000208A0200209002002080B584B01F
:10209C0000AF78600023FB737B685B7803F001036F
:1020AC00DBB2002B19D07B685B78052B15D800F0C0
:1020BC005BF803461A46284B1A707B681B78403332
:1020CC00DAB27B681A70244B1A787B689A700123F9
:1020DC00FB73224B03221A7038E07B685B78022B6F
:1020EC0018D11D4B1B7805337A68927893422DD109
:1020FC007B681B784033DAB27B681A70184B01226C
:10210C001A70184B01221A700123FB73134B042213
:10211C001A701BE07B685B78042B17D10E4B1B7875
:10212C000A337A689278934210D17B681B784033DB
:10213C00DAB27B681A700A4B02221A70094B012220
:10214C001A700123FB73054B04221A70FB7B184693
:10215C001037BD4680BD00BFAF020020A402002096
:10216C003D0000208C02002080B582B000AF002022
:10217C0000F018FA02460B4693B2184600F098F895
:10218C0000F0C4F803465A42DBB2D2B258BF5342F5
:10219C00FB71FB7918460837BD4680BD80B500AF92
:1021AC00064B1B78002B05D105490648FEF7D8FDD8
:1021BC00012300E00023184680BD00BF8B020020E5
:1021CC00A40200203800002080B582B000AF2F4B55
:1021DC001B78012B12D12E4B1B889BB201339AB268
:1021EC002B4B1A802A4B1B882A4B01221A70284B26
:1021FC0000221A80254B00221A7002E0244B002288
:10220C001A80254B1B78012B12D1244B1B889BB2B7
:10221C0001339AB2214B1A80204B1B88204B05228C
:10222C001A701E4B00221A801B4B00221A7002E0FF
:10223C001A4B00221A801B4B1B78012B1FD11A4BF7
:10224C001B889BB201339AB2174B1A80164B1B8812
:10225C009BB2B3F57A7F15D87F233B71134B1B7858
:10226C007B717823BB713B1D03211846FEF7A0FD43
:10227C000D4B00221A800B4B00221A7002E00A4B05
:10228C0000221A8000BF0837BD4680BD880200209E
:10229C00A60200203C0000208C020020AA02002094
:1022AC003D00002089020020A802002044020020EA
:1022BC0038B5104B04461D682B6BB3B9182000F0D1
:1022CC0071FA0246286320B946210B4B0B4800F0EB
:1022DC0003FA0B490B4BC0E900130B4B0021836035
:1022EC000B2383810120C2E9040100222B6B1C61AA
:1022FC005A6138BD98000020583600086F36000827
:10230C000E33CDAB34126DE6ECDE0500164B10B57A
:10231C001C68236BB3B9182000F044FA0246206302
:10232C0020B95221114B124800F0D6F91149124B29
:10233C00C0E90013114B002183600B238381012022
:10234C00C2E90401216B0E480B694C6958430D4AD4
:10235C0002FB0400A3FB0232013340EB0200C1E993
:10236C00043020F0004010BD9800002058360008C2
:10237C006F3600080E33CDAB34126DE6ECDE050083
:10238C002DF451582D7F954C002310B50446C0E90F
:10239C000033C0E90433836081814366C281836169
:1023AC00194608225C3000F0F4F80D4B246263628D
:1023BC000C4BA3620C4BE3620C4B23630C4B9C4207
:1023CC0006D003F16802944202D0D0339C4205D16E
:1023DC0004F15800BDE8104000F07AB910BD00BF00
:1023EC00192500083B2500087325000897250008CF
:1023FC00B0020020024A0349034800F069B800BF4C
:10240C00400000201D2A00084C00002041680C4BA5
:10241C0010B59942044601D000F0FAFAA168094BB4
:10242C00994202D0204600F0F3FAE168064B99423B
:10243C0004D02046BDE8104000F0EABA10BD00BF41
:10244C00B0020020180300208003002010B50B4BB5
:10245C000B4C0C4A20461A6004210022FFF794FF13
:10246C0004F1680001220921FFF78EFF04F1D0006E
:10247C000222BDE810401221FFF786BFE8030020BE
:10248C00B002002001240008014800F022B900BF6E
:10249C00F1030020014800F01DB900BFF10300203A
:1024AC0010B50446FFF7F0FF236A1BB1BDE81040DE
:1024BC00FFF7F0BF044B2362044B1B68002BF5D1D4
:1024CC00FFF7C4FFF2E700BF19240008E80300205F
:1024DC002DE9F8430746884614460026D4E90195B1
:1024EC00B9F1010905D52468002CF7D13046BDE8B7
:1024FC00F883AB89012B07D9B5F90E30013303D022
:10250C0029463846C04706436835E9E710B50C46FE
:10251C00B1F90E1000F094F80028ABBF636DA389DD
:10252C001B1823F48053ACBF6365A38110BD2DE948
:10253C00F0411F468B890546DB050C46164605D532
:10254C0002230022B1F90E1000F068F8A38932467C
:10255C0023F48053A38128463B46B4F90E10BDE802
:10256C00F04100F07FB810B50C46B1F90E1000F038
:10257C0055F8431CA38915BF606523F4805343F4BD
:10258C008053A38118BFA38110BDB1F90E1000F0C8
:10259C0023B803460244934200D1704703F8011B51
:1025AC00F9E700001FB50B4B04460022694618687A
:1025BC0000F022F8002805DA4FF0FF324FF0FF331D
:1025CC00CDE90023DDE900010CB1C4E9000104B040
:1025DC0010BD00BF9800002038B50023054D0446FF
:1025EC0008462B6000F0A6FE431C02D12B6803B1F9
:1025FC00236038BDEC03002038B50023064D04469B
:10260C00084611462B6000F0ADFE431C02D12B682E
:10261C0003B1236038BD00BFEC03002038B504467D
:10262C00084611460022054D2A601A4600F0B2FEFB
:10263C00431C02D12B6803B1236038BDEC0300208E
:10264C0038B50446084611460022054D2A601A4644
:10265C0000F0A8FE431C02D12B6803B1236038BDE7
:10266C00EC03002038B50446084611460022054DFF
:10267C002A601A4600F0ACFE431C02D12B6803B151
:10268C00236038BDEC03002070B500260C4D0D4CBA
:10269C00641BA410A64209D100F0A4FE00260A4D2A
:1026AC000A4C641BA410A64205D170BD55F8043B1E
:1026BC0098470136EEE755F8043B98470136F2E7A8
:1026CC003837000838370008383700083C3700081E
:1026DC0070477047704700001FB514461A46094BE7
:1026EC0005461B68D8684CB1074BCDE90134009105
:1026FC002B46064900F0B4F900F0D4F9044B1C4603
:10270C00F3E700BF98000020C7360008D436000855
:10271C000237000838B50546002940D051F8043C72
:10272C000C1F002BB8BFE41800F0E4F81C4A136827
:10273C0033B9636014602846BDE8384000F0E0B857
:10274C00A34208D9206821188B4201BF19685B6825
:10275C0009182160EDE71A465B680BB1A342FAD960
:10276C0011685018A0420BD12068014450188342C4
:10277C001160E0D118685B68084410605360DAE7B8
:10278C0002D90C232B60D6E7206821188B4201BF9D
:10279C0019685B680918216063605460CBE738BD29
:1027AC00F4030020024B0146186800F023B800BF68
:1027BC009800002070B50E4E0C463168054611B9D4
:1027CC0000F060F930602146284600F05BF9431CAC
:1027DC000AD0C41C24F00304A04207D0211A2846B6
:1027EC0000F050F9013001D14FF0FF34204670BD9C
:1027FC00F80300202DE9F843CD1C25F0030508351E
:10280C000C2D38BF0C25002D074601DBA94205D93C
:10281C000C2300263B603046BDE8F883DFF8D080FF
:10282C0000F068F8D8F800301C465CBB29463846E6
:10283C00FFF7C0FF431C044655D1D8F8004026468C
:10284C00002E45D1002C48D023683146384604EB85
:10285C00030900F017F981453FD1216838466D1AFC
:10286C002946FFF7A7FF013037D023682B4423609C
:10287C00D8F80030002B38D05A68A2422BD1002255
:10288C005A600FE02268521B1FD40B2A17D961190A
:10289C00A342256018BF5960636808BFC8F80010D0
:1028AC0062514B60384604F10B0600F029F826F013
:1028BC000706231DF21AAED09B1BA350ABE7A34215
:1028CC006268DDD1C8F80020ECE723466468ACE709
:1028DC0034467668B4E71346CCE70C2338463B60A5
:1028EC0000F00EF897E72560DCE75B60FFDE00BFC9
:1028FC00F40300200148FFF7ECBE00BFF0030020FA
:10290C000148FFF7E7BE00BFF00300208A89F8B545
:10291C00054610070C4657D44B68002B04DC0B6C97
:10292C00002B01DC0020F8BDE66A002EFAD0002353
:10293C0012F480522F68216A2B6032D0606DA3890B
:10294C005A0705D56368C01A636B0BB1236CC01AA8
:10295C0000230246E66A2846216AB047431CA38935
:10296C0006D129681D292BD8284A0A41D60727D415
:10297C00002262602269D904226004D5421C01D174
:10298C002B6803B96065616B2F600029CAD004F114
:10299C004403994202D02846FFF7BCFE0020606336
:1029AC00C1E701232846B047411CC8D12B68002B36
:1029BC00C5D01D2B01D0162B01D12F60B2E7A389F6
:1029CC0043F04003A381AEE70F69002FAAD0930711
:1029DC0018BF00230E6808BF4B69F61B0F608B6095
:1029EC00002E9FDD33463A462846216AD4F828C08B
:1029FC00E047002806DCA3894FF0FF3043F040038A
:102A0C00A38190E70744361AEAE700BFFEFFBFDF59
:102A1C0038B50B6905460C4613B90025284638BD58
:102A2C0018B1036A0BB9FFF73BFDB4F90C30002B5E
:102A3C00F3D0626ED00704D4990502D4A06DFFF7D1
:102A4C0048FE28462146FFF761FF636E0546DA070C
:102A5C00E4D4A3899B05E1D4A06DFFF73BFEDDE731
:102A6C000EB403B5014603AB054853F8042B0068BC
:102A7C00019300F045F802B05DF804EB03B0704729
:102A8C009800002038B50023054D044608462B60FD
:102A9C0000F090FC431C02D12B6803B1236038BDBD
:102AAC00EC030020062008B500F096FB012000F096
:102ABC0097FC936810B4013B002B936007DA946980
:102ACC00A34201DB0A2902D110BC00F0C7BA13687B
:102ADC00581C10601970084610BC7047F8B50646B3
:102AEC000F461446D518AC4201D1002007E03A46F7
:102AFC00304614F8011BFFF7DCFF431CF3D1F8BD83
:102B0C002DE9F04F0D461446984606469DB018B177
:102B1C00036A0BB9FFF7C4FC6B6ED90705D4AB89FC
:102B2C009A0502D4A86DFFF7D4FDAB891B0701D51C
:102B3C002B699BB92946304600F0CEFA70B16B6E0A
:102B4C00DC0704D54FF0FF301DB0BDE8F08FAB892A
:102B5C009805F7D4A86DFFF7BDFDF3E700230993A3
:102B6C0020238DF8293030234FF00109CDF80C804B
:102B7C00DFF8AC818DF82A3023469A4613F8012BE6
:102B8C000AB1252AF9D1BAEB040B0BD05B462246CD
:102B9C0029463046FFF7A2FF013000F0A980099AC0
:102BAC005A4409929AF80030002B00F0A1800023BF
:102BBC004FF0FF32CDE905230AF1010A0493079384
:102BCC008DF853301A935446052214F8011B5448BF
:102BDC0000F01EFB049AD8B9D10644BF20238DF80F
:102BEC005330130744BF2B238DF853309AF8003021
:102BFC002A2B15D0544600204FF00A0C079A214678
:102C0C0011F8013B303B092B4DD9B0B1079214E0C0
:102C1C00A0EB080309FA03F31343A2460493D2E78B
:102C2C00039B191D1B680391002BBBBF5B4242F039
:102C3C00020207930793B8BF049223782E2B0CD172
:102C4C0063782A2B34D1039B02341A1D1B68039220
:102C5C00002BB8BF4FF0FF330593DFF8C8A0032259
:102C6C005046217800F0D4FA38B14022049BA0EBF6
:102C7C000A00824013430134049314F8011B06220A
:102C8C0029488DF8281000F0C3FA00283FD0274BB4
:102C9C001BBB039B073323F0070308330393099BE8
:102CAC003B44099368E70C4601200CFB0232A6E773
:102CBC0000234FF00A0C194601340593204610F8F6
:102CCC00012B303A092A03D9002BC6D00591C4E751
:102CDC00044601230CFB0121F0E703AB00932A46C9
:102CEC003046134B04A9AFF300800746781CD6D1AD
:102CFC006B6ED90705D4AB899A0502D4A86DFFF782
:102D0C00E9FCAB895B063FF51DAF09981CE703ABEB
:102D1C0000932A463046064B04A900F07DF8E4E700
:102D2C0003370008093700080D37000800000000C1
:102D3C00E92A00082DE9F047164699468A680B697E
:102D4C0007469342B8BF1346336091F843200C46B4
:102D5C00DDF820800AB1013333602368990642BF45
:102D6C00336802333360256815F0060506D104F18B
:102D7C00190AE36832689B1AAB422BDC94F84320A7
:102D8C00131E226818BF0123920630D449463846D8
:102D9C0004F14302C047013023D02368226903F0B9
:102DAC000603042B14BF002533684FF0000608BF40
:102DBC00E56804F11A0408BFED1A54F8123C08BF78
:102DCC0025EAE5759342C4BF9B1AED18B5421AD19A
:102DDC00002008E00123524649463846C0470130DE
:102DEC0003D14FF0FF30BDE8F0870135C1E730204B
:102DFC00E11881F843005A1C94F845102244023320
:102E0C0082F84310C2E70123224649463846C047A0
:102E1C000130E6D00136D9E72DE9FF470F7E914608
:102E2C00782F80460C469A460C9D01F1430207D838
:102E3C00622F0AD8002F00F0D580582F00F0C180E7
:102E4C0004F1420584F842703AE0A7F16303152BB4
:102E5C00F6D801A151F823F0BD2E0008D12E0008A0
:102E6C004D2E00084D2E00084D2E00084D2E00084A
:102E7C00D12E00084D2E00084D2E00084D2E0008B6
:102E8C004D2E0008D72F0008FD2E0008912F0008AA
:102E9C004D2E00084D2E0008F92F00084D2E00086D
:102EAC00FD2E00084D2E00084D2E0008992F00080D
:102EBC002B681A1D1B682A6004F1420584F8423005
:102ECC000123A0E020682B68070603F104012960A8
:102EDC0001D51E6803E04606FBD5B3F90060002E51
:102EEC0003DA2D23764284F843300A23594812E042
:102EFC002B682068191D2960050601D51E6802E0A3
:102F0C004106FBD51E886F2F0CBF08230A2351489E
:102F1C00002184F843106568002DA8BF2168A560C6
:102F2C00A4BF21F0040121600EB9002D4BD0154631
:102F3C00B6FBF3F103FB1167C75D05F8017D37465E
:102F4C00BB420E46F4D9082B0BD12368DE0708D5FB
:102F5C00236961689942DEBF302305F8013C05F115
:102F6C00FF35521B22614B4621464046CDF800A04E
:102F7C0003AAFFF7DFFE01304AD14FF0FF3004B057
:102F8C00BDE8F087236843F020032360782732489C
:102F9C0084F84570236829681F0651F8046B02D425
:102FAC005F0648BFB6B2DF0748BF43F02003296075
:102FBC0048BF23601EB9236823F02003236010232D
:102FCC00A6E72448E4E71546BDE72B682668181DDC
:102FDC006169286035061B6801D5196002E070062E
:102FEC00FBD51980002315462361BCE72B68002113
:102FFC001A1D2A601D686268284600F009F908B19C
:10300C00401B606063682361002384F84330AAE7A7
:10301C002A46494640462369D0470130ADD0236843
:10302C009B0713D4E068039B9842B8BF1846A6E7E9
:10303C000123324649464046D04701309DD00135E8
:10304C00E36803995B1AAB42F2DCEBE7002504F171
:10305C001906F5E71437000825370008F8B50E46B1
:10306C001446054618B1036A0BB9FFF719FAA369A0
:10307C00A360A3891A0725D523691BB3236822698A
:10308C00F6B2981A63693746834204DC2146284617
:10309C00FFF7BEFCE0B9A368013BA36023685A1C90
:1030AC0022601E706269431C9A4204D0A389DB071C
:1030BC0006D50A2E04D121462846FFF7A9FC38B9BB
:1030CC003846F8BD2146284600F006F80028D5D031
:1030DC004FF0FF37F4E7000038B52A4B0546186867
:1030EC000C4618B1036A0BB9FFF7DAF9A389B4F9E6
:1030FC000C20180722D4D90607D409232B6042F0E0
:10310C0040034FF0FF30A38134E0580712D5616BB8
:10311C0041B104F14403994202D02846FFF7FAFA70
:10312C0000236363A38923F02403A381002363603A
:10313C0023692360A38943F00803A38123694BB956
:10314C00A38903F42073B3F5007F03D021462846EE
:10315C0000F091F8A089B4F90C2010F001030AD00A
:10316C000023A36063695B42A361236943B910F038
:10317C008000C4D138BD810758BF6369A360F4E7F0
:10318C000020F7E7980000201F2938B504460D46AB
:10319C0004D9162303604FF0FF3038BDC26B12B157
:1031AC0052F821304BB9204600F030F82A4601463F
:1031BC002046BDE8384000F017B8012B0AD0591C46
:1031CC0003D1162303600120E7E70024284642F8C8
:1031DC00254098470020E0E7024B01461868FFF7AE
:1031EC00D3BF00BF9800002038B50023064D04461D
:1031FC00084611462B6000F0C5F8431C02D12B6821
:10320C0003B1236038BD00BFEC03002000F0A2B86E
:10321C00034610B5C9B202449342184601D10020AE
:10322C0003E0047801338C42F6D110BD70B50C4626
:10323C00B1F90E10154600291E4696B00CDAA3897A
:10324C00002113F0800F0CBF4FF48063402300204B
:10325C0031602B6016B070BD6A4600F049F800284A
:10326C00EDDB019901F47041A1F50053594259412C
:10327C004FF48063EBE78B8973B59D0706460C46CC
:10328C0007D504F14703236023610123636102B076
:10329C0070BD6A4601ABFFF7C9FF00990546304681
:1032AC00FFF7A8FA48B9B4F90C309A05EFD423F01B
:1032BC00030343F00203A381E3E7A389206043F0F7
:1032CC008003A381009B20616361019B5BB130464D
:1032DC00B4F90E1000F01EF828B1A38923F00303F3
:1032EC0043F00103A381A3891D43A581CFE700000F
:1032FC0038B50023064D0446084611462B6000F0F5
:10330C0021F8431C02D12B6803B1236038BD00BFE8
:10331C00EC03002038B50023054D044608462B600D
:10332C0000F028F8431C02D12B6803B1236038BD90
:10333C00EC0300205822024B4FF0FF301A6070470C
:10334C00EC0300205822024B4FF0FF301A607047FC
:10335C00EC0300205822024B4FF0FF301A607047EC
:10336C00EC0300205822024B4FF0FF301A607047DC
:10337C00EC0300205822024B00201A60704700BF5B
:10338C00EC0300205822024B4FF0FF301A607047BC
:10339C00EC0300205822024B4FF0FF301A607047AC
:1033AC00EC0300205822024B4FF0FF301A6070479C
:1033BC00EC030020044A0346116809B90349116063
:1033CC001068034413607047FC03002000040020C5
:1033DC005822024B4FF0FF301A607047EC0300206C
:1033EC00FEE70000F8B500BFF8BC08BC9E4670476D
:0C33FC00F8B500BFF8BC08BC9E46704746
:1034080000000000511A000801000000951A000889
:1034180002000000E51A000800000000751B000803
:1034280001000000B11B000802000000191C000880
:10343800000400000000000001040000000000007B
:103448000204000000000000030400000000000067
:103458000404000000000000050400000000000053
:10346800060400000000000007040000000000003F
:10347800080400000000000009040000000000002B
:103488000A040000000000000B0400000000000017
:103498000C040000000000000D0400000000000003
:1034A8000E040000000000000F04000000000000EF
:1034B800100100006D1E000811040000000000004B
:1034C80012040000000000001304000000000000C7
:1034D80014040000000000001504000000000000B3
:1034E800160400000000000017040000000000009F
:1034F800180400000000000019040000000000008B
:103508001A040000000000001B0400000000000076
:103518001C040000000000001D0400000000000062
:103528001E040000000000001F040000000000004E
:10353800200400000000000021040000000000003A
:1035480022020000F91C000823040000000000000B
:103558002404000000000000250400000000000012
:10356800260400000000000027030000992000083E
:1035780028040000000000002904000000000000EA
:103588002A040000000000002B04000000000000D6
:103598002C040000000000002D04000000000000C2
:1035A8002E020000391F00082F0400000000000050
:1035B800300400000000000031040000000000009A
:1035C8003204000000000000330400000000000086
:1035D8003404000000000000350400000000000072
:1035E800360400000000000037040000000000005E
:1035F800380400000000000039040000000000004A
:103608003A040000000000003B0400000000000035
:103618003C040000000000003D0400000000000021
:103628003E000000051F00083F04000000000000E5
:10363800A0F3000028000020030004030501000097
:10364800A1F300002C0000200A000403050100007B
:103658005245454E54206D616C6C6F6320737563E1
:10366800636565646564002F6275696C642F676EB5
:10367800752D746F6F6C732D666F722D73746D3347
:10368800325F31312E332E72656C312E3230323347
:10369800303931322D313630302F7372632F6E65E9
:1036A800776C69622F6E65776C69622F6C696263EB
:1036B8002F7374646C69622F72616E642E63002CC0
:1036C8002066756E6374696F6E3A20006173736566
:1036D8007274696F6E2022257322206661696C6599
:1036E800643A2066696C6520222573222C206C6957
:1036F8006E65202564257325730A00232D302B2041
:1037080000686C4C006566674546470030313233C7
:103718003435363738394142434445460030313232
:1037280033343536373839616263646566000000C2
:043738003101000853
:04373C000D01000873
:103740006920616D2072656661617400DF0C00089C
:10375000A50B0008B10B0008BD0B0008C90B000841
:10376000D50B00080A0000001011120020212223AE
:1037700024252627282900009002002001050200A8
:103780000000000003000000B00200200000000064
:10379000B002002018030020800300200000000079
:1037A0000000000000000000000000000000000019
:1037B0000000000000000000000000000000000009
:1037C00000000000000000000000000000000000F9
:0C37D00000000000000000004C00002081
:04000005080016F1E8
:00000001FF
